:1000000000800020BD010000990E0000510E00008C
:10001000510E0000510E0000510E0000510E000064
:10002000510E0000510E0000510E0000990E00000C
:10003000990E0000510E0000F1250000F52500008A
:10004000990E0000990E0000990E0000990E000014
:10005000990E0000990E0000990E0000990E000004
:10006000990E0000990E0000990E0000990E0000F4
:10007000990E0000990E0000990E0000990E0000E4
:10008000990E0000990E0000990E0000990E0000D4
:10009000990E0000990E0000990E0000990E0000C4
:1000A000990E0000990E0000990E0000990E0000B4
:1000B000990E0000990E0000990E0000990E0000A4
:1000C000990E0000990E0000990E0000990E000094
:1000D000990E0000990E0000990E0000990E000084
:1000E000990E0000990E0000990E0000990E000074
:1000F000990E0000990E0000990E0000990E000064
:10010000990E0000990E0000990E0000990E000053
:10011000990E0000990E0000990E0000990E000043
:10012000990E0000990E0000990E0000990E000033
:10013000990E0000990E0000990E0000990E000023
:10014000990E0000990E0000990E0000990E000013
:10015000990E0000990E0000990E0000990E000003
:10016000990E0000B5150000990E0000990E0000D0
:10017000990E0000990E0000990E0000990E0000E3
:10018000990E0000990E0000990E0000990E0000D3
:10019000990E0000990E0000990E0000990E0000C3
:1001A000990E0000990E0000990E0000990E0000B3
:1001B000990E0000990E0000990E0000564B4CF26B
:1001C000205210B51A804DF628121A8000BF00BFC9
:1001D00000F066FE514B4FF010621A60504A9A6070
:1001E000504ADA60504A136813F4807304D14F49BF
:1001F0000B604FF4A85313604D4B1A78110703D5C9
:100200001A7842F008021A704A4B4B492A221A7097
:100210004A4A4B4B8B4204D252F8040F43F8040B6A
:10022000F8E7484B484900228B4202D243F8042B9E
:10023000FAE74649464A002352F8230041F82300D2
:1002400001336F2BF8D1434B434A802103F8011B44
:100250009342FBD1414B3D4A1A60414B8A221A70AE
:10026000A3F5805324225A70A0221A709A7992071B
:10027000FCD59A79D406FCD43A4A937903F00C035E
:10028000082B384BF9D105221A7143225A719A79F9
:100290009006FCD5334A9179324B4906FBD5324A58
:1002A0004FF0817111600521516020221A709A79F6
:1002B00002F00C020C2AFAD12C4B2D4A1A602D4B5D
:1002C0002D4A1A6000225A60072243F8042C2B4A58
:1002D000C3F80C2D62B601F023F8144B1B68DA0743
:1002E00005D5274800F07EFE264B274A1A60274B8B
:1002F0001B785B0609D5234C234B22689A4204D114
:100300001F4800F06FFE0023236003F0D5F900F0D2
:10031000CDFD00F095FDFEE70E2005403080044045
:10032000823F04000100002B10D0034014D0034092
:1003300002D0074000E007403490FF1FA4420000B5
:100340002087FF1F3490FF1F0092FF1F0082FF1FB6
:100350000000000000E400E05FE400E008ED00E0E1
:1003600000500640004006404480044004800440A1
:10037000C010050014E000E03F190100000020203B
:100380006222F7601CE00340A5C3945A00F00740C6
:10039000FFFFFFFFFFFFFFFFFFFFFFFFFFFFFFFF6D
:1003A000FFFFFFFFFFFFFFFFFFFFFFFFFFFFFFFF5D
:1003B000FFFFFFFFFFFFFFFFFFFFFFFFFFFFFFFF4D
:1003C000FFFFFFFFFFFFFFFFFFFFFFFFFFFFFFFF3D
:1003D000FFFFFFFFFFFFFFFFFFFFFFFFFFFFFFFF2D
:1003E000FFFFFFFFFFFFFFFFFFFFFFFFFFFFFFFF1D
:1003F000FFFFFFFFFFFFFFFFFFFFFFFFFFFFFFFF0D
:10040000FFFFFFFFFFFFFFFFFFFFFFFFDEF9FFFF23
:1004100010B5054C237833B9044B13B10448AFF33E
:1004200000800123237010BD3490FF1F00000000E6
:10043000A8420000084B10B51BB108490848AFF3AB
:1004400000800848036803B910BD074B002BFBD0A0
:10045000BDE81040184700BF000000003890FF1FA3
:10046000A84200003490FF1F0000000070B5264C29
:100470002648274E274D112101F01EFF204600F08F
:10048000ADFB01210E2000F0D1FE01210F2000F074
:10049000CDFE0121072000F0C9FE0121082000F057
:1004A000C5FE0121172000F0C1FE0021132000F03D
:1004B000BDFE30460222092100F0D0FA3046052167
:1004C00000F0E6FA022228460B2100F0C7FA28467F
:1004D000052100F0DDFA00210E2000F093FE00213E
:1004E0000F2000F08FFE0021072000F08BFE00217E
:1004F000082000F087FE1521074801F0DDFE2046A8
:10050000BDE8704000F06ABB3887FF1F0C40000058
:100510008090FF1F6090FF1F2040000070B51021E9
:1005200082B03848384C394D01F0C6FE384B204671
:10053000196800F0A3FB2846012101F0BDFE0C2143
:10054000344801F0B9FE344B2046196800F096FBA0
:100550002846012101F0B0FE0A21304801F0ACFE2E
:100560002F4B2046196800F089FB2846012101F035
:10057000A3FE0D212B4801F09FFE2B4B204619684E
:1005800000F07CFB2846012101F096FE102127484F
:1005900001F092FE264B2046197800F06FFB2846AA
:1005A000012101F089FE0721224801F085FE224B3E
:1005B000186802F05DFA022602460B4600962046B5
:1005C00000F066FB2846012101F076FE11211B4850
:1005D00001F072FE1A4B2046196800F04FFB2846C6
:1005E000012101F069FE0F21164801F065FE164B4E
:1005F0002046196800F042FB204602B0BDE870407A
:1006000000F0ECBA384000003887FF1F4C40000073
:100610007490FF1F504000008890FF1F6040000052
:100620005090FF1F6C4000007890FF1F7C4000003E
:100630007C90FF1F904000005490FF1F98400000E6
:100640008C90FF1FAC4000005890FF1F0E4B10B560
:100650000E4C1B6823600121072000F0D3FD01210F
:10066000082000F0CFFD01210E2000F0CBFD00217D
:100670000F2000F0C7FD206802F0F2FFBDE8104037
:100680000146172000F0C0BC5490FF1F5C90FF1F74
:100690002DE9F0411C4D1D4E1D4C1E4FDFF8808092
:1006A0003560FFF7D3FF3968206802F013FE206041
:1006B000D8F8000000F0E4FD2846216802F002FDB1
:1006C0004FF08741054602F0A3FF0028E8D143F62A
:1006D0008C4000F0D5FD104D3560FFF7B7FF39684D
:1006E000206802F0F7FD2060D8F8000000F0C8FD97
:1006F0002846216802F0E4FC0849054602F0A6FFFE
:100700000028E9D1BDE8F081000048425490FF1F65
:100710002887FF1F2087FF1F00007F430000C8427B
:100720002C87FF1F0E4B10B50E4C1B682360012158
:10073000072000F067FD0121082000F063FD002183
:100740000E2000F05FFD01210F2000F05BFD20680E
:1007500002F086FFBDE810400146172000F054BCAF
:100760005490FF1F5C90FF1F2DE9F0411C4D1D4E62
:100770001D4C1E4FDFF880803560FFF7D3FF3968CE
:10078000206802F0A7FD2060D8F8000000F078FD96
:100790002846216802F096FC4FF08741054602F09A
:1007A00037FF0028E8D142F6E06000F069FD104D07
:1007B0003560FFF7B7FF3968206802F08BFD2060D5
:1007C000D8F8000000F05CFD2846216802F078FCB3
:1007D0000849054602F03AFF0028E9D1BDE8F0815A
:1007E000000048425490FF1F2887FF1F2087FF1FEB
:1007F00000007F43000096422C87FF1F2DE9F04741
:100800001C217548754CDFF81092DFF8108200F05B
:10081000DDF92060724800F03DF9724800F03AF9C5
:100820006F4800F06FF9C9F800006E4800F06AF9EF
:10083000C8F80000FFF772FE2368062B40F38F8094
:10084000694D6A4F6A4E072B04DD6A4A12689A4264
:1008500000F3AB802B68042B47D0D8F80030002B76
:1008600043D03B68DFF884A1042B60D03368062BAB
:100870000FD0D9F8003063B12368282B04DDD8F8F5
:100880000030012B00F09B803220BDE8F04700F0E3
:10089000F7BC0821584801F00FFD584800F09EF9B8
:1008A000FFF762FF41F2883000F0EAFCFFF7F0FE4C
:1008B000534B544A1A604A4800232B603B60336014
:1008C00000F0E8F8474800F0E5F84FF47A7000F0DF
:1008D000D7FC2368282BD7DDD9F80030002BCED1E8
:1008E0003220BDE8F04700F0CBBC07214648DFF8D6
:1008F000FCA001F0E1FC414800F070F9FFF734FF83
:100900003F4B424A3F4919603548002301212B6083
:100910003B603360117000F0BDF8324800F0BAF867
:100920004FF47A7000F0ACFC3B68042B9ED1082198
:10093000374801F0C1FC314800F050F9FFF7A8FE3C
:100940002F4B324A2F4919604FF47A7000231370ED
:100950002B60CAF80030336000F092FC86E7DFF8C5
:10096000ACA0214D9AF80030204F5BB1204E3B687F
:100970000022013364203B602A60326000F080FC7A
:10098000236860E72A681A4E3B60013264203360B6
:100990002A6000F075FC2368062B3FF754AF9AF8E5
:1009A0000020002A3FF44FAFE1E733680022013313
:1009B000642033602A603A6000F062FC4AE7092153
:1009C000144801F079FC0D4800F008F900232B6071
:1009D0003B60336058E700BF6890FF1F7490FF1FB3
:1009E0008090FF1F6090FF1F8890FF1F5090FF1F97
:1009F0007890FF1F2487FF1FD04000003887FF1F1B
:100A00002887FF1F00007041BC4000007C90FF1F42
:100A1000C4400000DC4000005890FF1F8C90FF1F76
:100A200008B5022244F620630321054800F06EF861
:100A3000044800F00BF80448BDE8084000F006B890
:100A40006890FF1F8090FF1F6090FF1F00220A2107
:100A5000818002608271C271704700BF30B5CDB233
:100A6000044683B02846D1B200F0E0FB0023E571D4
:100A70002846A37100F0CCFB08B10323A371034BFC
:100A80001B680193019B236003B030BD9090FF1F52
:100A900081807047F0B5044685B0C07900F0B8FB9E
:100AA000A279003018BF0120C2F3400102F0F70321
:100AB0008842A3710BD0124A1268019283F002039C
:100AC000019AA3712260C3F3C00005B0F0BD0C4DC4
:100AD0002768296802910299A688C91BB142F2D3FE
:100AE00002F001029042EED02A68039283F00903DB
:100AF000039AA371C3F3C000226005B0F0BD00BF2C
:100B00009090FF1F807900F00100704738B50446CF
:100B1000881AB0FA80F0400921706270A07008460F
:100B200001211D4600F082FB6078002100F07EFB71
:100B3000A560204638BD00BF837810B50446002B61
:100B40003AD10021207800F05DFB3023013BFDD13C
:100B50000121207800F056FBF023013BFDD100215C
:100B6000207800F04FFBA3785BBB00F065FB606072
:100B7000607800F04DFB58B100F05EFB606060787B
:100B800000F046FB60B900F057FB6368C01A10BD67
:100B900000F052FB6368A268C01A9042E8D9EBE704
:100BA00000F04AFB6368A268C01A9042E7D900F0DF
:100BB00043FB6368C01A10BD0121007800F036FBCA
:100BC000BFE70021207800F031FBCEE710B50C46DE
:100BD000FFF7B2FFB0FBF4F0400810BD00B5064AC5
:100BE000036812885B6883B001A9ADF80420022273
:100BF000984703B05DF804FBE8400000F0B50746F5
:100C00008BB0002A33D0012A08BF0A2251B3212415
:100C100000E0F4B2B1FBF2F502FB1511C8B20929EC
:100C200000F1300198BFC8B20AA988BF373021440B
:100C300088BFC0B201F8240C661E2946002DE8D1F9
:100C400033B1013CE4B20AAB23442D2203F8242C37
:100C50003B6801AA11195B683846C4F12202984723
:100C60000BB0F0BD30228DF825202124E8E7036881
:100C7000C9B21B6898470BB0F0BD00BF0029BABFCE
:100C800049422D2300230A22FFF7B8BFFFFFFFFFD1
:100C90002DE9F04385B080461946104616461F469A
:100CA0009DF8305002F0D2F9002840F0B18027F0D2
:100CB0000044304621464FF0FF32594B02F0C6F94E
:100CC00098B9304621464FF0FF32554B02F0A0F95B
:100CD00058B9D8F8003053495B684046032298471A
:100CE0008146484605B0BDE8F083304639464FF0AE
:100CF00060424D4B02F0A0F9002870D130463946D1
:100D00004FF06042494B02F079F9002867D1304634
:100D100039460022002302F071F9002863D1814690
:100D2000002D65D0424B00240022104619463AA3FC
:100D3000D3E9002301F0F0FE01340B46E1B28D420D
:100D40000246F2D83046394601F034FD0F460646D9
:100D500002F092F9044601F069FE02460B46304665
:100D6000394601F025FD4B4606460F460A2221462C
:100D70004046FFF743FF0F2D28BF0F2501352E23D7
:100D80008146EDB28DF8003001240022294B304617
:100D9000394601F0C1FE0F46064602F06DF904AB7C
:100DA0002344C0B200F1300203F8102C01F04EFED3
:100DB00002460B463046394601F0FAFC0134E4B2F3
:100DC000AC4206460F46E0D1D8F8003022465B68B8
:100DD000404669469847484605B0BDE8F083D8F8D4
:100DE0000030154978E707F100474FF0010997E710
:100DF00000220F4B3046394601F0DCFC02F03CF992
:100E00004B4601460A224046FFF7F8FE814668E756
:100E1000D8F8003009495FE7000000A09999B93F70
:100E2000FFFFEF7FF4400000FFFFEF41FFFFEFC146
:100E30000000E03F00002440F0400000EC400000D3
:100E400008B5FFF713FBFFF7D9FC01F039FBFAE710
:100E500008B5104C08E0236859050DD423681A051D
:100E60000FD42368DB0411D423685803F3D500F0B2
:100E7000A1FB23685905F1D500F00EF823681A0587
:100E8000EFD500F009F82368DB04EDD500F004F895
:100E9000EAE700BF3480044008B5FFF7D9FF00BF80
:100EA000014B10221A80704700200540704700BF98
:100EB000094908B50B6830B16A461844A2F580525A
:100EC000904202D20860184608BD02F0EFFB0C23E6
:100ED00003604FF0FF3008BD3087FF1FF0B44D1E98
:100EE0002E46002400E00134B0FBF2F302FB1300B5
:100EF000092800F130078ABF3730F8B2C0B206F8CF
:100F0000010F1846002BEED10A1953704CB110781E
:100F100015F8016F28700133E01A834202F8016965
:100F2000F5DB0846F0BC704710B40F4B53F8302087
:100F300092F880422CB1012369B182F8803010BC54
:100F4000704703EBC0035B681A6841B922F00202E4
:100F50001A6010BC704782F8003110BC704742F034
:100F600003021A6010BC7047F84000001C4A02EBF4
:100F7000C00301295B6811D004291BD052F830004E
:100F8000002280F8802229B1022920D0032922D012
:100F90001A6070474FF480721A60704752F8300040
:100FA0004FF4A27280F880121A601A6822F02002B0
:100FB0001A60704752F830104FF4A272012081F885
:100FC00080021A601A6842F020021A60704740F2EC
:100FD00003121A6070474FF481721A60704700BFA5
:100FE000F840000030B4054B054D064C002210219E
:100FF0001A602A602060196030BC704714D003402A
:1010000004D0034000D00340282838B52ED0002952
:1010100004464FDD5F4B1B78012505FA03F28A4237
:1010200002D8212837D938BD0338C2B2012A3AD9AB
:10103000202C4AD0192C48D0574A126802FB0112C2
:1010400022FA03F31D2800F29B80DFE800F0928B68
:10105000847D9999766F99999999999999999968AF
:10106000615A53994C99999999999945494B1B788B
:101070000B2B08D90C2B1CBF0C3B19410846BDE8B3
:10108000384001F02FBBC3F10C0399400846BDE87E
:10109000384001F027BB2946FFF746FF2946BDE847
:1010A0003840FFF763BF3D4A126802FB011222FA83
:1010B00003F3C7E72128B6D80021FFF735FF204604
:1010C0000121BDE83840FFF751BF354A126802FBE5
:1010D000011222FA03F3B5E73249334A0B604FF4A9
:1010E0005173136038BD3149314A0B604FF451736D
:1010F000136038BD2F49304A0B6040F244431360FF
:1011000038BD2E492E4A0B6040F24443136038BD6F
:101110002C492D4A0B6040F24443136038BD2B49E3
:101120002B4A0B6040F24443136038BD29492A4AD8
:101130000B6040F24443136038BD2849284A0B60D5
:1011400040F24443136038BD2649274A0B6040F201
:101150004443136038BD2549254A0B6040F244439F
:10116000136038BD2349244A0B604FF45173136058
:1011700038BD2249224A0B604FF45173136038BDC9
:10118000212C3FF650AF7F29D4BF002101212046FA
:1011900093E700BF3487FF1F088003400890034097
:1011A00008800B4010800B4048A0044018800B4082
:1011B0004CA004401880034008B004401080034055
:1011C00004B004404080034018C00440388003400D
:1011D00014C004402880034010B004402080034025
:1011E0000CB004403080034010C0044048800340ED
:1011F0001CC00440189003403490044010900340F9
:1012000030900440212801D8FFF78EBE704700BF00
:10121000212806D8044B53F8303093F80002C0B2AE
:1012200070470020704700BFF8400000212801D817
:10123000FFF79CBE704700BF72B60D490D4B0E4ABA
:101240001B680868126862B6520102D5322B88BF4B
:1012500001300A49C3F58C334FF47A7203F23F131D
:10126000A1FB031302FB00F000EB1310704700BF5B
:101270009090FF1F18E000E004ED00E0398EE338A5
:101280002DE9F843054672B6214F224B224A1B68CE
:101290003C68126862B6520102D5322B88BF013415
:1012A000A5B3C3F58C331D4EDFF86890DFF8688076
:1012B00003F23F134FF47A72A6FB031302FB04F40C
:1012C00004EB131472B6D9F800103A68D8F800E0AD
:1012D00062B6C1F58C3303F23F13A6FB03031EF085
:1012E000806FC4EB13134FF47A7002D0322988BF99
:1012F000013200FB0233B3F57A7F04D3013D05D000
:1013000004F57A74DEE701F0DBF8DBE7BDE8F8838B
:101310009090FF1F18E000E004ED00E0398EE33804
:10132000F8B52D4B2D49DFF8D0E0DFF8D0C02C4EBA
:101330002C4D2D4C2D4A2E4F4FF4000018604FF0CD
:10134000807018604FF0007018604FF08060186077
:101350004FF00060186000200860282348F6FF71F5
:10136000CCF80010CEF80030336013602B6023609F
:101370003B60B3629362092245F8242CC4F8D80F6D
:1013800005F57F65C7F8D41F07F5FF2707F5FA674E
:10139000C6F8F83F2B6006F5FF26C4F8D42F05F5F4
:1013A000FD2504F5FF24386006F2F476114831601B
:1013B00005F5FF6504F5FD642B602360026001F014
:1013C00021F91920FFF75CFF00F05AFE40F21310DC
:1013D000BDE8F840FFF754BF08E100E00480034097
:1013E00014800340248003402C8003401C80034071
:1013F0003480034000800B400C8003400880034091
:10140000431E032B14D872B60A4951F8230068B161
:1014100070B4094C058834F81320466841F82360FD
:10142000521B24F8132062B670BC704762B6704736
:1014300000207047EC90FF1FE891FF1F0138032840
:101440000BD872B6074B53F8203043B100205B68CD
:101450000130002BFBD162B6704700207047184660
:10146000F9E700BF4091FF1F30B472B62B4A1378E2
:101470001D0706D52A4B196A002936D0996A00291A
:1014800041D053781C0706D5254B196C00293ED056
:10149000996C002939D09378190705D5204B196E1E
:1014A000002936D0996E89B1D3781B0707D51C4B1C
:1014B000D3F880207AB3D3F8882011213AB162B6EC
:1014C000184B00221A7030BC00F06ABE0D21154C7A
:1014D000154D227843F8315003EBC1030830013A2F
:1014E0005860227062B630BC704704220D4C0F4D1C
:1014F000217843F8325003EBC20308304A1E58608B
:10150000227062B6EFE70521E1E70921DFE7082253
:10151000ECE70C22EAE71022E8E700BF30420000C7
:101520000080FF1F6991FF1FC80040008800400035
:10153000431E032B1DD81B4A400140F0100030B45D
:10154000104472B6184CE25C032A1BD8DFE802F0A4
:101550000212151703220D88E25410F0080F14BF71
:10156000C823882343EA054308310360416062B61B
:1015700030BC704708300222EDE70522EBE7083067
:101580000422E8E7094A52F8230038B1084A52F821
:101590002300416042F8231062B6E9E742F82310C5
:1015A000034AF7E70080FF1F7891FF1F4091FF1F5C
:1015B0005091FF1F2DE9F04FDFF818B3DFF818A3A3
:1015C00087B044E0AE4F4FEA930807EBC809013EED
:1015D000D9F8042003F00803F6B2A2F1080003F0E2
:1015E000FF04002B40F0048157F838301B0C99B2EF
:1015F00022F8081C002B00F0F280A24B22F8064CC7
:1016000042F8044C53F82620002A00F06E819E4DCB
:1016100055F8263058609D4C45F8260034F81630B1
:10162000194424F8161000F09BFD002800F05681A4
:10163000974A984B19F0080F00F1080018BF13469D
:10164000C9F8040047F8383008238BF800309BF8BD
:101650000040E4B261071BD58F4B1B78ABB18F49BB
:101660000A7802F0FF032AB1013BDBB20B70002BBA
:1016700000F0EF848A490A7802F0FF032AB1013BA7
:10168000DBB20B70002B00F0F78004238BF80030E6
:1016900004F0080303F0FF02002B00F0D6809AF854
:1016A0000030DBB21E098DD19C08DFF8D49159F8C7
:1016B000342009EBC401C2F38302013A49680C2AC1
:1016C0007ED8DFE802F081817D7D7D7D7D7D477D57
:1016D0007D7D07000868734D4A68734F734E28601C
:1016E00081B240F281606A4B6A604FF0010E0022C5
:1016F000814249F834303A60C9F81020C9F81820FE
:1017000086F800E05E4C00F2F480B1F5D06F80F016
:101710007883B1F5817F00F0628300F287828029AF
:1017200000F0EC82822940F01E83A98801F07F013D
:10173000042900F218835E485E4C89000844227038
:1017400062700278930740F1798384F800E04FF0EB
:10175000020ED8E2544F3A6842B3574B534E5749A2
:10176000188834780D784028864645F0020828BF4E
:101770004FF0400E002C84F001043470CEEB0000DA
:101780000CBF8824C82409EBC80680B285F0010587
:1017900044EA0E447260188049F8384072440D7073
:1017A00018B9BEF1400F18BF00223A603D4B1A88AD
:1017B000B2F5A06F04D100219A785970404B1A708D
:1017C000404A012313703FE7364A158842F2210050
:1017D000854200F0FF812E4A49F83420F0E72C4A78
:1017E0002C4B19F0080F18BF134647F838302BE779
:1017F00000F0D6FC344A354952F82630002B00F070
:10180000B68158688C5D42F8260003F10802C9F8D9
:101810000420032C05D8DFE804F0120F150204227F
:101820008A551A8819F0080F0CBF8823C82343EA89
:10183000024347F8383007E702228A55F1E70322CE
:101840008A55EEE705228A55EBE7E00700F11A8298
:10185000210600F14982A20706D51D4A1D491378C9
:101860000220DBB213700870E30602D5194B102278
:101870001A7007B0BDE8F08F00F0FEFD05E700BF6D
:101880000080FF1FEC90FF1F9890FF1FE891FF1F43
:10189000C8004000880040007491FF1FFD90FF1FAA
:1018A0007C91FF1F6091FF1F9490FF1FFC90FF1F12
:1018B000C02007406C91FF1FA890FF1F6891FF1F79
:1018C00098200740942007404091FF1F7891FF1F08
:1018D000882007408020074090200740AB4A47F807
:1018E0003800137801331370AEE643F82600A84D94
:1018F00091E642F22100814200F0358100F2AF8191
:10190000B1F5086F00F01B82B1F5106F40F02B822B
:10191000226AA049A8780870120600F14583D9F818
:1019200028209D49130600F13A83D9F830209A49BE
:10193000150600F12F83D9F838209749140600F1D5
:101940002483D9F840209449100600F11983D9F86E
:1019500048209149120600F10E83D9F850208E4993
:10196000130600F10383D9F858208B49150600F1BE
:10197000F882D9F860208849140600F12983D9F843
:1019800068208549100600F11E83D9F8702082492D
:10199000120600F11383D9F878207F49130600F16D
:1019A0000883D9F880207C49150600F11C83D9F8FA
:1019B00088207949140600F11083D9F890207649DF
:1019C000100600F1C882D9F898207349120600F178
:1019D000BC827248724A7349019073486C4D734CD3
:1019E0000497002305960295804617460E461D462D
:1019F0000394386828B1446800F0D2FB2046002CDC
:101A0000F9D100233B60029B30681A46002342F85C
:101A1000253028B1446800F0C3FB2046002CF9D1E2
:101A200000223260019A98F800301146002241F8F5
:101A3000042B039A0191023B4FF0000122F815108C
:101A4000032B09D8DFE813F04B0104004B0104001D
:101A50004FF0010388F800300135042D07F1040729
:101A600006F1040608F10108C3D1514C514B22780C
:101A7000464D049F059E002129701A70130700F13E
:101A80004F8262784C49DFF810810A7010074FF0DE
:101A90000001C9F83010C9F8381000F12B8247490D
:101AA000A2780A700021C9F85010C9F8581011071F
:101AB000DFF8E48000F1DC81E2784149364C0A70BD
:101AC00000211207C9F87010C9F8781000F1B98127
:101AD00033780193002183F00102C9F89010C9F80E
:101AE00098100020029080468446044635490D78BF
:101AF00045F0020E09EBCE030393019B002B039BE1
:101B00005C600CBF8824C82444EA080385F0010403
:101B100049F83E3032700C70DFF87CE02A4BDFF879
:101B2000A480002840F02681BCF1400F1BD144F076
:101B3000020C09EBCC03029CDFF85CE05C60002A3D
:101B400040F02E81020442F088029DF804304EF8E5
:101B50003C20044433700D702346402803D10020FC
:101B60001A4A3B6010801A4A0123137028E68B5DE5
:101B7000032B00F22D8101A252F823F04916000038
:101B800049160000D31C0000D91C00006991FF1FFA
:101B90009890FF1F7491FF1F0080FF1F5091FF1F3F
:101BA000EC90FF1F4091FF1F7891FF1FE891FF1FEE
:101BB00030420000C4200740C8200740CC20074026
:101BC000D02007406891FF1FFC90FF1FA890FF1FC7
:101BD00094200740928892B9B14A0D7848781570E0
:101BE00050708D78C8789570D07010680D79157127
:101BF00086284D7989795571917100F0A580A949A0
:101C0000A94E0A78307882F00105002842F00202DD
:101C10000D700CBF8821C82149F8321009EBC202AF
:101C200080F00100002130705160D4E540F20232B2
:101C3000914240F08D80A98801F07F01042900F2D3
:101C400092806A88002A40F08E809848CDF804E09F
:101C500089000844017841F00201017041E742F235
:101C6000212081427BD1A988002940F0E480904B5B
:101C7000904A9148AC781D681560CDF804E00A469A
:101C800004702EE78D4B8E4886491A614FF0020E84
:101C900080F800E0854F0A708A49196099608A4E81
:101CA0008A4D8B4C9A610D213970FF213170DFF81C
:101CB00040E229702270874D874A8EF800109F27D6
:101CC000012406F8047C5D600470DA6007B0BDE8AA
:101CD000F08F00238B55B7E401238B55B4E44FF00C
:101CE000000388F80030B7E67049784B80220D2059
:101CF00008701A70A2077FF5B7ADAEE5774C4FF0CC
:101D0000020E22706270EA88724580F0A3816549F4
:101D10000D78402A944645F0020E28BF4FF0400C43
:101D200004EB0C0309EBCE000293012344604FEA5D
:101D30000C48CCEB020001930022C824E4E6684A78
:101D4000664C12782270DEE7664A0F21117056E762
:101D5000B1F5A06F07D1012300220193C1E642F241
:101D600021329142F7D0514A0F231370544A012374
:101D7000137025E540287FF6DAAE44F002040EEB3E
:101D8000C401029E4E60BAB19DF80410564A197003
:101D90003346403888F8005040334EF83420DFE6B0
:101DA0009DF8043033700204029B0D7042F0C802AB
:101DB00003444EF83C20D0E69DF804101970029BB5
:101DC000404A88F80050403840334EF83420C7E687
:101DD00019F0080F0CBF022303238B5534E4A988A4
:101DE00001F07F010429BED86A88002ABBD12F48A0
:101DF000CDF804E089000844017821F00201017067
:101E00006FE63A4A5468002CADD06888B5F804E013
:101E100003E00C325468002CA5D013888342F8D11B
:101E200053887345F5D1000A03280CBF94F800E0ED
:101E3000B2F808E067E7CDF804E052E64FF0020E92
:101E400061E700F08DF9002800F0F18008301D4AAC
:101E5000C4F88400C4F8802000F082F9002800F063
:101E6000E0800830204AC9F88C00C9F888202FE6A5
:101E700000F076F9002800F0E6800830114AC8F832
:101E80006400C8F8602000F06BF9002800F0D580ED
:101E90000830154AC9F86C00C9F868200CE600BF84
:101EA000F091FF1F6891FF1FFC90FF1FC0200740AB
:101EB0009090FF1FF891FF1F8C91FF1F0080FF1F64
:101EC0009420074088004000882007408020074079
:101ED00098200740AC90FF1F0091FF1F6C91FF1FDF
:101EE0007491FF1FFD90FF1FC800400034420000A6
:101EF0008C20074000F034F9002800F08C80083076
:101F00005D4AC8F84400C8F8402000F029F90028CC
:101F10007BD00830594AC9F84C00C9F84820BEE5C2
:101F200000F01EF900286AD00830534AC9F824008E
:101F3000C9F8202000F014F900285AD008304F4A80
:101F4000C9F82C00C9F828209BE5D1F89C00083876
:101F500000F026F93DE5D1F89400083800F020F9AA
:101F600031E5C86D083800F01BF902E5486D083806
:101F700000F016F9F7E4C86C083800F011F9ECE449
:101F8000486C083800F00CF9E1E4C86B083800F040
:101F900007F9D6E4486B083800F002F9CBE4C86AC8
:101FA000083800F0FDF8C0E4606A083800F0F8F87E
:101FB000B5E4C86F083800F0F3F8F2E4486F083869
:101FC00000F0EEF8E7E4C86E083800F0E9F8DCE469
:101FD000486E083800F0E4F8D1E4D1F88C000838F5
:101FE00000F0DEF8E9E4D1F88400083800F0D8F811
:101FF000DDE42A78C9F8280001322A7041E52A7800
:10200000C9F8200001322A7094E72A78C9F84800FC
:1020100001322A7043E52A78C8F8400001322A705C
:1020200073E72A78C9F8880001322A7050E52A78C7
:10203000C4F8800001322A700EE72A78C9F86800D7
:1020400001322A7038E52A78C8F8600001322A7017
:1020500019E700BEBEF1400FF44628BF4FF0400C18
:1020600004EB0C0302930123CCEB0E004FEA0C4867
:10207000002201933AE500BF88004000C8004000FC
:102080002DE9F843204C00F04DFB002204F1A000A4
:1020900023461A605A60083383424FF00001F8D19A
:1020A0001A4A1B4F13681B4D1B481C4EDFF87880E3
:1020B000DFF878C0DFF87890DFF878E043F4802329
:1020C0001360C4F307233B70C4F307432B70240E43
:1020D000FF2302F528320470114D88F800301148B2
:1020E0008CF80030D4323370012389F80030702628
:1020F0008EF800104FF40074102107F8183C2E7071
:1021000004601170BDE8F8830080FF1F3480044034
:102110009C200740B0200740B42007401020074013
:1021200049E400E008E100E0802007408820074003
:10213000942007400021074000F0A2B800F07AB8D0
:1021400000F054B800F08EB800F06AB900F044B95D
:102150000846114600F0B0B8084600F031B900BF9B
:1021600072B60D480268B2FA82F30B2B10DC4FF006
:102170000041D94022EA0102026062B6074803EB3F
:10218000C303DB00C2180021C150104651607047E4
:1021900062B60020704700BF4887FF1FBC83FF1F47
:1021A0000D4B0E4AC31AA2FB03231B090B2B0CD8A1
:1021B0000B4A127852B972B60A484FF000410268D1
:1021C00021FA03F31A43026062B67047064A127896
:1021D000002AF0D0FFF748B9BC83FF1F398EE338DF
:1021E0006991FF1F4887FF1F7491FF1F38B50F4D7E
:1021F000286878B143880288C118013393420C7A69
:1022000002D24380204638BDFFF7CAFF0023204694
:102210002B6038BD064B1B782BB10320FFF7F0F87D
:1022200028600028E6D14FF0FF3038BD8891FF1FAD
:102230007491FF1F10B5094C206818B143881844E9
:10224000007A10BD064B1B782BB10320FFF7D8F89E
:1022500020600028F2D14FF0FF3010BD8891FF1FA1
:102260007491FF1F044B054A1B6890881BB11A88A4
:102270005B88D31A184470478891FF1FE891FF1FAD
:102280000B4B1B789BB110B50A4C206848B1FFF787
:1022900087FF002303202360FFF7B2F830B1FFF778
:1022A0007FFF0320FFF7ACF80028F8D110BD70477E
:1022B0007491FF1F8891FF1F2DE9F04FDFF8F89010
:1022C00083B0012289F80020019169B3DFF8EC8026
:1022D000364F019E8346D8F80000B0B3344D448891
:1022E000C4F14001B14228BF314604EB010E002287
:1022F0001FFA8EFE2A70761AA0F802E000F108029A
:1023000051B1013C224459441BF8014B02F8014FE2
:102310008B45F9D1B0F802E0BEF13F0F0BD8254A4A
:1023200005211170002ED6D10198002389F80030C4
:1023300003B0BDE8F08F4022028001460420FFF781
:10234000F7F80022C8F80020E9E73A782AB3184DD8
:1023500048F601444FF0010A07E0013C16D02A7804
:10236000A2B900F0ADF83A78BAB10420FFF766F8E8
:102370000728F2D889F800A0FFF7F2FEC8F800009D
:102380000028ACD10C4B013C1870E8D101234FF070
:10239000FF302B7003B0BDE8F08F00234FF0FF300B
:1023A00089F8003003B0BDE8F08F00BF7491FF1FC3
:1023B0008491FF1F7C91FF1F7D91FF1F8091FF1F64
:1023C00000B583B002AB012103F8010D1846FFF7F9
:1023D00073FF03B05DF804FB38B50E4D0E4C286852
:1023E0000123237028B1408800232370C0F14000EE
:1023F00038BD0A4B1B7813B90020207038BD04206B
:10240000FFF71CF80728F7D8FFF7AAFE2860002876
:10241000E9D1F1E78091FF1F7D91FF1F7491FF1FAC
:10242000F8B5114B1B788BB1104E114D3468012754
:102430002F7064B10F4A63880027177021462380EC
:102440000420FFF775F8376000232B70F8BDFFF705
:1024500087FE084B28B1014604201C70FFF768F87E
:10246000F2E71F70F0E700BF7491FF1F8091FF1F1C
:102470007D91FF1F7C91FF1F38B50E4B1B7873B900
:102480000D4C216861B103F0FF054B880B800420DF
:10249000FFF74EF8256038BD084B01221A7038BD91
:1024A000FFF75EFE0028F7D00146BDE83840042063
:1024B000FFF73EB87D91FF1F8091FF1F7C91FF1FAA
:1024C0002DE9F843314E337893B1314F3A787AB9E8
:1024D0000122D9073A7036D49A0719D400225B0733
:1024E0003A7005D52B4B1A6812B1EFF305820AB189
:1024F000BDE8F883EFF3108172B6186818B1264C66
:102500002278002A2ED00029F2D162B6BDE8F883E5
:10251000DFF8908098F80020002ADFD0DFF888905C
:10252000002405E0013498F80030E4B2A34212D947
:1025300059F824502B6828461B6998470028F1D089
:102540002B699847EEE7FFF78DFEC8B9134B1B7850
:102550001BB93378C0E73378C0E7337803F0FE0364
:102560003370B9E745691D60012323705DB1AA612D
:1025700001B962B600254577836898472570B7E7AB
:1025800000F0CEF8E2E7064B1D60F1E74C87FF1F35
:102590008D91FF1F9C91FF1FA091FF1F4F87FF1F71
:1025A0009891FF1FB091FF1FA491FF1F70B5EFF32B
:1025B000108272B60C4C206880B10C4E0025436925
:1025C000236073B19D6102B962B64577836898470D
:1025D000EFF3108272B620680028F0D102B962B61B
:1025E00070BD3360EFE700BF9091FF1F9491FF1F14
:1025F000FFF7DCBF024A136801331360704700BF66
:102600009090FF1F30B42948294A2A4B2A4D602454
:10261000E121047011701B78284C082B30D00A2B54
:102620002748284937D00C2B0CBF15223D221223F6
:102630002A60236002600B60234B24491B78244AE4
:10264000BBB101230B601360224B23491B78234A43
:10265000012B26D9042B0FD9082B1ED9102B94BF80
:10266000862387230B6013601D4B01221A7030BC38
:1026700070470B601360E7E784230B601360F3E798
:1026800000F58E200F490830012213232A602360B1
:1026900002600B60D0E71922F7E785230B60136017
:1026A000E2E780230B601360DEE700BF00400740D5
:1026B000014007404D87FF1F08B003400CB00340A6
:1026C00008B00B400CB00B40B291FF1F20B003408C
:1026D00020B00B404E87FF1F24B0034024B00B40B6
:1026E000B191FF1F0A4A0B49136843F480531360EA
:1026F0000B7843B9084BC0221A70084B80F30C00CA
:1027000000B218807047044B80221A70F5E700BFB2
:102710002C800440B291FF1F21C00C4000C00C402F
:10272000704700BF70B584B072B6194B194D1A4886
:10273000702241260F2480211A702E701A460470D0
:10274000197013781B06FCD5144B186862B6144B2D
:10275000144C984298BF00EB800001A998BF40003C
:102760000A22FEF7BBFB01A92046002311F8012B2A
:1027700001333AB10A2B20F8022FF7D11623237028
:1027800004B070BD5B00DBB2237004B070BD00BF4D
:10279000000002400700024006000240080002401C
:1027A0007F969800DC87FF1F81F0004102E000BFA8
:1027B00083F0004330B54FEA41044FEA430594EA01
:1027C000050F08BF90EA020F1FBF54EA000C55EA3C
:1027D000020C7FEA645C7FEA655C00F0E2804FEA0D
:1027E0005454D4EB5555B8BF6D420CDD2C4480EAEF
:1027F000020281EA030382EA000083EA010180EA1F
:10280000020281EA0303362D88BF30BD11F0004F6C
:102810004FEA01314FF4801C4CEA113102D04042A2
:1028200061EB410113F0004F4FEA03334CEA1333DD
:1028300002D0524263EB430394EA050F00F0A780F5
:10284000A4F10104D5F1200E0DDB02FA0EFC22FAF0
:1028500005F2801841F1000103FA0EF2801843FAE4
:1028600005F359410EE0A5F120050EF1200E012AD5
:1028700003FA0EFC28BF4CF0020C43FA05F3C01813
:1028800051EBE37101F0004507D54FF0000EDCF18C
:10289000000C7EEB00006EEB0101B1F5801F1BD335
:1028A000B1F5001F0CD349085FEA30004FEA3C0C39
:1028B00004F101044FEA445212F5800F80F09A802F
:1028C000BCF1004F08BF5FEA500C50F1000041EB33
:1028D000045141EA050130BD5FEA4C0C404141EB37
:1028E000010111F4801FA4F10104E9D191F0000F5E
:1028F00004BF01460020B1FA81F308BF2033A3F1E1
:102900000B03B3F120020CDA0C3208DD02F1140CD7
:10291000C2F10C0201FA0CF021FA02F10CE002F112
:102920001402D8BFC2F1200C01FA02F120FA0CFC0B
:10293000DCBF41EA0C019040E41AA2BF01EB045154
:10294000294330BD6FEA04041F3C1CDA0C340EDC52
:1029500004F11404C4F1200220FA04F001FA02F395
:1029600040EA030021FA04F345EA030130BDC4F153
:102970000C04C4F1200220FA02F001FA04F340EA48
:102980000300294630BD21FA04F0294630BD94F0F9
:10299000000F83F4801306BF81F480110134013DE0
:1029A0004EE77FEA645C18BF7FEA655C29D094EA51
:1029B000050F08BF90EA020F05D054EA000C04BFCF
:1029C0001946104630BD91EA030F1EBF00210020BA
:1029D00030BD5FEA545C05D14000494128BF41F059
:1029E000004130BD14F580043CBF01F5801130BDBD
:1029F00001F0004545F0FE4141F470014FF0000048
:102A000030BD7FEA645C1ABF194610467FEA655CF8
:102A10001CBF0B46024650EA013406BF52EA03359A
:102A200091EA030F41F4002130BD00BF90F0000F88
:102A300004BF0021704730B54FF4806404F13204C4
:102A40004FF000054FF0000150E700BF90F0000F7D
:102A500004BF0021704730B54FF4806404F13204A4
:102A600010F0004548BF40424FF000013EE700BF74
:102A700042004FEAE2014FEA31014FEA02701FBF04
:102A800012F07F4393F07F4F81F06051704792F0D6
:102A9000000F14BF93F07F4F704730B54FF4607450
:102AA00001F0004521F0004120E700BF50EA01029B
:102AB00008BF704730B54FF000050AE050EA010248
:102AC00008BF704730B511F0004502D5404261EBB8
:102AD00041014FF4806404F132045FEA915C3FF4F9
:102AE000DCAE4FF003025FEADC0C18BF03325FEA92
:102AF000DC0C18BF033202EBDC02C2F1200300FA47
:102B000003FC20FA02F001FA03FE40EA0E0021FA6B
:102B100002F11444C1E600BF70B54FF0FF0C4CF455
:102B2000E06C1CEA11541DBF1CEA135594EA0C0F0B
:102B300095EA0C0F00F0DEF82C4481EA030621EA46
:102B40004C5123EA4C5350EA013518BF52EA033581
:102B500041F4801143F4801338D0A0FB02CE4FF033
:102B60000005E1FB02E506F00042E0FB03E54FF063
:102B70000006E1FB03569CF0000F18BF4EF0010E5B
:102B8000A4F1FF04B6F5007F64F5407404D25FEA57
:102B90004E0E6D4146EB060642EAC62141EA55510A
:102BA0004FEAC52040EA5E504FEACE2EB4F1FD0C4C
:102BB00088BFBCF5E06F1ED8BEF1004F08BF5FEACA
:102BC000500E50F1000041EB045170BD06F000467C
:102BD00046EA010140EA020081EA0301B4EB5C0429
:102BE000C2BFD4EB0C0541EA045170BD41F4801121
:102BF0004FF0000E013C00F3AB8014F1360FDEBF46
:102C0000002001F0004170BDC4F10004203C35DA21
:102C10000C341BDC04F11404C4F1200500FA05F3A4
:102C200020FA04F001FA05F240EA020001F0004245
:102C300021F0004110EBD37021FA04F642EB0601BB
:102C40005EEA430E08BF20EAD37070BDC4F10C04E5
:102C5000C4F1200500FA04F320FA05F001FA04F2A9
:102C600040EA020001F0004110EBD37041F1000195
:102C70005EEA430E08BF20EAD37070BDC4F12005A0
:102C800000FA05F24EEA020E20FA04F301FA05F208
:102C900043EA020321FA04F001F0004121FA04F2B0
:102CA00020EA020000EBD3705EEA430E08BF20EA80
:102CB000D37070BD94F0000F0FD101F000464000BA
:102CC00041EB010111F4801F08BF013CF7D041EA3C
:102CD000060195F0000F18BF704703F00046520040
:102CE00043EB030313F4801F08BF013DF7D043EA11
:102CF0000603704794EA0C0F0CEA135518BF95EAC7
:102D00000C0F0CD050EA410618BF52EA4306D1D14D
:102D100081EA030101F000414FF0000070BD50EA6C
:102D2000410606BF1046194652EA430619D094EAF6
:102D30000C0F02D150EA013613D195EA0C0F05D1E0
:102D400052EA03361CBF104619460AD181EA030134
:102D500001F0004141F0FE4141F470014FF00000EC
:102D600070BD41F0FE4141F4780170BD70B54FF087
:102D7000FF0C4CF4E06C1CEA11541DBF1CEA135507
:102D800094EA0C0F95EA0C0F00F0A7F8A4EB0504E9
:102D900081EA030E52EA03354FEA013100F08880E0
:102DA0004FEA03334FF0805545EA131343EA1263A9
:102DB0004FEA022245EA111545EA10654FEA00265E
:102DC0000EF000419D4208BF964244F1FD0404F517
:102DD000407402D25B084FEA3202B61A65EB030573
:102DE0005B084FEA32024FF480104FF4002CB6EB30
:102DF000020E75EB030E22BFB61A754640EA0C00B0
:102E00005B084FEA3202B6EB020E75EB030E22BFEF
:102E1000B61A754640EA5C005B084FEA3202B6EB30
:102E2000020E75EB030E22BFB61A754640EA9C00EF
:102E30005B084FEA3202B6EB020E75EB030E22BFBF
:102E4000B61A754640EADC0055EA060E18D04FEA7D
:102E5000051545EA16754FEA06164FEAC30343EA1D
:102E600052734FEAC2025FEA1C1CC0D111F4801FEA
:102E70000BD141EA00014FF000004FF0004CB6E7E3
:102E800011F4801F04BF01430020B4F1FD0C88BF82
:102E9000BCF5E06F3FF6AFAEB5EB030C04BFB6EB8D
:102EA000020C5FEA500C50F1000041EB045170BD80
:102EB0000EF0004E4EEA113114EB5C04C2BFD4EBAD
:102EC0000C0541EA045170BD41F480114FF0000E31
:102ED000013C90E645EA060E8DE60CEA135594EAAD
:102EE0000C0F08BF95EA0C0F3FF43BAF94EA0C0FB0
:102EF0000AD150EA01347FF434AF95EA0C0F7FF425
:102F000025AF104619462CE795EA0C0F06D152EA78
:102F100003353FF4FDAE1046194622E750EA41065C
:102F200018BF52EA43067FF4C5AE50EA41047FF46D
:102F30000DAF52EA43057FF4EBAE12E74FF0FF3CD2
:102F400006E000BF4FF0010C02E000BF4FF0010CA3
:102F50004DF804CD4FEA410C7FEA6C5C4FEA430C1C
:102F600018BF7FEA6C5C1BD001B050EA410C0CBF6B
:102F700052EA430C91EA030F02BF90EA020F0020CD
:102F8000704710F1000F91EA030F58BF994208BF34
:102F900090422CBFD8176FEAE37040F001007047F1
:102FA0004FEA410C7FEA6C5C02D150EA013C07D148
:102FB0004FEA430C7FEA6C5CD6D152EA033CD3D093
:102FC0005DF8040B704700BF8446104662468C468D
:102FD0001946634600E000BF01B5FFF7B7FF0028C0
:102FE00048BF10F1000F01BD4DF808EDFFF7F4FFE9
:102FF0000CBF012000205DF808FB00BF4DF808ED74
:10300000FFF7EAFF34BF012000205DF808FB00BF96
:103010004DF808EDFFF7E0FF94BF012000205DF8B8
:1030200008FB00BF4DF808EDFFF7CEFF94BF01206D
:1030300000205DF808FB00BF4DF808EDFFF7C4FF66
:1030400034BF012000205DF808FB00BF4FEA410CAF
:103050007FEA6C5C02D150EA013C0AD14FEA430C92
:103060007FEA6C5C02D152EA033C02D14FF00000CF
:1030700070474FF0010070474A0011D212F500125C
:1030800011D20DD56FF47873B3EB62520ED44FEAC0
:10309000C12343F0004343EA505323FA02F0704740
:1030A0004FF00000704750EA013002D14FF0FF307E
:1030B00070474FF00000704780F0004002E000BF12
:1030C00081F0004142001FBF5FEA410392EA030F13
:1030D0007FEA226C7FEA236C6AD04FEA1262D2EB5D
:1030E0001363C1BFD218414048404140B8BF5B4262
:1030F000192B88BF704710F0004F40F4000020F0FB
:103100007F4018BF404211F0004F41F4000121F010
:103110007F4118BF494292EA030F3FD0A2F101025A
:1031200041FA03FC10EB0C00C3F1200301FA03F198
:1031300000F0004302D5494260EB4000B0F5000FBB
:1031400013D3B0F1807F06D340084FEA310102F17A
:103150000102FE2A51D2B1F1004F40EBC25008BF2C
:1031600020F0010040EA03007047490040EB0000F6
:1031700010F4000FA2F10102EDD1B0FA80FCACF125
:10318000080CB2EB0C0200FA0CF0AABF00EBC25024
:1031900052421843BCBFD0401843704792F0000F12
:1031A00081F4000106BF80F400000132013BB5E765
:1031B0004FEA41037FEA226C18BF7FEA236C21D0DB
:1031C00092EA030F04D092F0000F08BF0846704740
:1031D00090EA010F1CBF0020704712F07F4F04D10E
:1031E000400028BF40F00040704712F100723CBF21
:1031F00000F50000704700F0004343F0FE4040F44B
:10320000000070477FEA226216BF08467FEA236308
:103210000146420206BF5FEA412390EA010F40F4F3
:10322000800070474FF0000304E000BF10F000433F
:1032300048BF40425FEA000C08BF704743F0964326
:1032400001464FF000001CE050EA010208BF704741
:103250004FF000030AE000BF50EA010208BF7047C8
:1032600011F0004302D5404261EB41015FEA010CDD
:1032700002BF84460146002043F0B64308BFA3F1D5
:103280008053A3F50003BCFA8CF2083AA3EBC253B7
:1032900010DB01FA02FC634400FA02FCC2F12002D6
:1032A000BCF1004F20FA02F243EB020008BF20F00D
:1032B0000100704702F1200201FA02FCC2F1200273
:1032C00050EA4C0021FA02F243EB020008BF20EA68
:1032D000DC7070474FF0FF0C1CEAD0521EBF1CEA96
:1032E000D15392EA0C0F93EA0C0F6FD01A4480EA84
:1032F000010C400218BF5FEA41211ED04FF000636D
:1033000043EA501043EA5111A0FB01310CF0004098
:10331000B1F5000F3EBF490041EAD3715B0040EABE
:10332000010062F17F02FD2A1DD8B3F1004F40EB8E
:10333000C25008BF20F00100704790F0000F0CF061
:10334000004C08BF49024CEA502040EA51207F3A25
:10335000C2BFD2F1FF0340EAC250704740F4000000
:103360004FF00003013A5DDC12F1190FDCBF00F0F1
:1033700000407047C2F10002410021FA02F1C2F19F
:10338000200200FA02FC5FEA310040F1000053EA3B
:103390004C0308BF20EADC70704792F0000F00F089
:1033A000004C02BF400010F4000F013AF9D040EA8F
:1033B0000C0093F0000F01F0004C02BF490011F423
:1033C000000F013BF9D041EA0C018FE70CEAD15321
:1033D00092EA0C0F18BF93EA0C0F0AD030F0004CA1
:1033E00018BF31F0004CD8D180EA010000F0004055
:1033F000704790F0000F17BF90F0004F084691F013
:10340000000F91F0004F14D092EA0C0F01D142024C
:103410000FD193EA0C0F03D14B0218BF084608D115
:1034200080EA010000F0004040F0FE4040F400005F
:10343000704740F0FE4040F4400070474FF0FF0CF2
:103440001CEAD0521EBF1CEAD15392EA0C0F93EA39
:103450000C0F69D0A2EB030280EA010C49024FEA8B
:10346000402037D04FF0805343EA111143EA101344
:103470000CF000408B4238BF5B0042F17D024FF4FC
:10348000000C8B4224BF5B1A40EA0C00B3EB510FD7
:1034900024BFA3EB510340EA5C00B3EB910F24BFC0
:1034A000A3EB910340EA9C00B3EBD10F24BFA3EB45
:1034B000D10340EADC001B0118BF5FEA1C1CE0D10D
:1034C000FD2A3FF650AF8B4240EBC25008BF20F0C0
:1034D000010070470CF0004C4CEA50207F32C2BF14
:1034E000D2F1FF0340EAC250704740F400004FF0B1
:1034F0000003013A37E792F0000F00F0004C02BFE2
:10350000400010F4000F013AF9D040EA0C0093F0AB
:10351000000F01F0004C02BF490011F4000F013B05
:10352000F9D041EA0C0195E70CEAD15392EA0C0F6D
:1035300008D142027FF47DAF93EA0C0F7FF470AFA5
:10354000084676E793EA0C0F04D14B023FF44CAFE8
:1035500008466EE730F0004C18BF31F0004CCAD17D
:1035600030F000427FF45CAF31F000437FF43CAFB9
:103570005FE700BF4FF0FF3C06E000BF4FF0010CDB
:1035800002E000BF4FF0010C4DF804CD4FEA4002BD
:103590004FEA41037FEA226C18BF7FEA236C11D007
:1035A00001B052EA530C18BF90EA010F58BFB2EBBA
:1035B000030088BFC81738BF6FEAE17018BF40F03A
:1035C000010070477FEA226C02D15FEA402C05D1EE
:1035D0007FEA236CE4D15FEA412CE1D05DF8040B73
:1035E000704700BF844608466146FFE70FB5FFF706
:1035F000C9FF002848BF10F1000F0FBD4DF808EDBE
:10360000FFF7F4FF0CBF012000205DF808FB00BFAE
:103610004DF808EDFFF7EAFF34BF012000205DF808
:1036200008FB00BF4DF808EDFFF7E0FF94BF012055
:1036300000205DF808FB00BF4DF808EDFFF7D2FF52
:1036400094BF012000205DF808FB00BF4DF808ED95
:10365000FFF7C8FF34BF012000205DF808FB00BF62
:103660004FEA4002B2F1FE4F0FD34FF09E03B3EB8F
:1036700012620DD94FEA002343F0004310F0004FCF
:1036800023FA02F018BF404270474FF00000704725
:1036900012F1610F01D1420205D110F0004008BFC4
:1036A0006FF0004070474FF000007047014B186802
:1036B000704700BF208CFF1F70B50F4E0F4D761B5B
:1036C000B61018BF002405D0013455F8043B9847C4
:1036D000A642F9D10A4E0B4D761B00F0D7FDB6106D
:1036E00018BF002406D0013455F8043B9847A64281
:1036F000F9D170BD70BD00BF984200009842000033
:10370000A442000098420000024B0146186800F0F5
:1037100003B800BF208CFF1F2DE9F04F01F10B050E
:10372000162D83B0064640F29F8035F0070500F164
:10373000BF80A94200F2BC8000F0A6FAB5F5FC7F7C
:10374000C0F09C826B0A00F0BA80042B00F28381E7
:10375000A80900F1390E4FEA4E033830C44F07EB89
:103760008303A3F108015C68A14207D1ACE0002A01
:1037700080F2AC80E468A14200F0A680636823F088
:1037800003035A1B0F2AF2DDB9493C6901F1080E07
:10379000744500F0B381636823F003035A1B0F2ABA
:1037A00000F39981002AC1F814E0C1F810E080F21A
:1037B0009E80B3F5007F80F06781DB0803F1010C88
:1037C00001229B1002FA03F34A6851F83C80C4F8C6
:1037D000088001EBCC091A43A9F10803E3604A60B1
:1037E00041F83C40C8F80C40831001249C409442AE
:1037F00000F28A80144206D120F0030064001442D3
:1038000000F10400FAD007EBC009CC468046DCF892
:103810000C108C4507D173E1002A80F28181C968C0
:103820008C4500F06D814B6823F003035A1B0F2A6F
:10383000F2DD0C46D1F80CC054F8088F4B1945F056
:1038400001054D6042F00101C8F80CC03046CCF8CB
:1038500008807B613B61C3F80CE0C3F808E0596065
:103860009A5000F013FA1FE0102921D800F00CFA4A
:103870001025062302207E4F07EB8303A3F10802E5
:103880005C68944200F045816368E168A56823F0B4
:103890000303234430465A68E96042F001028D6018
:1038A0005A6000F0F3F90834204603B0BDE8F08F09
:1038B00000240C232046336003B0BDE8F08F802342
:1038C0004FF0400E3F2049E770465DE72344E16832
:1038D0005A68A56842F00102E96030468D605A607E
:1038E00000F0D4F90834204603B0BDE8F08F23443B
:1038F00030465A6842F001025A6000F0C7F90834B5
:10390000204603B0BDE8F08FBC68636823F003086D
:10391000A84504D3C5EB08030F2B00F38C80554B4F
:10392000DFF860911A68D9F8003001332A4404EBBB
:10393000080A00F0608102F580520F3222F47F62A3
:1039400022F00F0211463046019200F0A1F9B0F1C9
:10395000FF3F8346019A00F05881824500F2FC80C7
:10396000454B1968DA451144196000F05381D9F8C4
:103970000000DFF810E101301BBFCAEB0B0A514415
:10398000CEF800B019601BF0070100F01781C1F1FB
:103990000800C1F58051834408315A44C2F30B0238
:1039A000C2EB010949463046019300F071F9431C0E
:1039B000019B00F03F81CBEB00024A4442F0010240
:1039C0001968C7F808B04944BC42CBF80420196014
:1039D000DFF8A49016D0B8F10F0F40F2FD806268B6
:1039E000A8F10C0323F00703E01802F001024FF0E6
:1039F000050E1A430F2B6260C0F804E0C0F808E01F
:103A000000F21C811D4BBC681A68914288BF196086
:103A10001B4B1A689142626888BF196022F003024A
:103A20009542A2EB050301D80F2B04DC304600F0D1
:103A30002DF9002438E7621943F0010345F0010530
:103A400065603046BA60536000F020F908342046C3
:103A500003B0BDE8F08F142B71D9542B00F2A48071
:103A6000280B00F16F0E4FEA4E036E3076E600BF72
:103A7000248CFF1FBC91FF1FC091FF1FB891FF1F37
:103A8000B491FF1F3090FF1F5A0A042A5ED9142AEE
:103A900000F2B38002F15C0149005B3207EB810C5C
:103AA00057F82110DFF8DC81ACF1080C8C4500F0F0
:103AB00088804A6822F00302934202D289688C45CA
:103AC000F7D1D1F80CC07A68C4F80CC0A160CCF86A
:103AD0000840CC6088E6631942F0010745F0010513
:103AE000656030464B610B61C3F80CE0C3F808E039
:103AF0005F609A50083400F0C9F8D5E64A6873E66A
:103B000008F1010818F0030F0CF1080C7FF47FAEE8
:103B100030E0DC68A34208BF02303FF435AEB3E6C4
:103B20000B440C465A68C96854F8085F42F0010219
:103B30005A603046E9608D6000F0A8F8B4E603F101
:103B40005C0E03F15B004FEA4E0307E69A0902F1AF
:103B5000390149003832A1E7BC424A4B3FF400AF7B
:103B60009C68626822F003025AE759F808399945BF
:103B700040F0828010F0030F00F1FF30F5D17B6838
:103B800023EA04037B6064009C423FF6BDAE002C38
:103B90003FF4BAAE1C4240467FF435AE64001C428E
:103BA00000F10400FAD02EE6B3F5AA7F18D8E80B8E
:103BB00000F1780E4FEA4E037730CFE54FF4805195
:103BC000EBE60121D8F80430921001FA02F21A4310
:103BD000C8F80420614677E70123CBF8043025E7D5
:103BE00040F25452934220D8A80C00F17D0E4FEAC7
:103BF0004E037C30B2E51032A4E6542A26D81A0BC4
:103C000002F16F0149006E3248E7BC68626822F039
:103C1000030205E7CAF30B0000287FF4A8AE424474
:103C2000BB6842F001025A60ECE6FE234FF07F0EC3
:103C30007E2093E501224FF00009C1E604F108015E
:103C4000304600F0A9F8D9F80010DBE6B2F5AA7FFB
:103C500005D8DA0B02F17801490077321EE740F20D
:103C600054518A4205D89A0C02F17D0149007C32F8
:103C700014E7FE217E2211E77B6884E7E808431CF5
:103C80005B00F8E5248CFF1F704700BF704700BF42
:103C900038B5074C0023054608462360FDF708F9B0
:103CA000431C00D038BD2368002BFBD02B6038BDEF
:103CB000FC91FF1F024B13B1024800F005B870479A
:103CC00000000000D53C0000002301461A461846BB
:103CD00000F04AB938B5074D074C2C1BA41005D08D
:103CE000013C55F8043D9847002CF9D1BDE8384017
:103CF00000F0D8BA0000000000000000F8B5234F23
:103D00000C460646FFF7C0FFBB685D6825F003055B
:103D1000291B01F6EF7121F47F6121F00F01A1F55C
:103D20008054B4F5805F07DB00213046FFF7B0FF19
:103D3000BB682B44984204D03046FFF7A7FF002011
:103D4000F8BD61423046FFF7A3FF01300DD0104BA4
:103D5000BA6819682D1B45F001053046091B5560EE
:103D60001960FFF793FF0120F8BD00213046FFF7EF
:103D70008FFFBA68831A0F2BDEDD064C04492468D6
:103D800043F00103001B53600860D5E7248CFF1F3C
:103D9000C091FF1F3090FF1F002945D02DE9F04151
:103DA0000D468046FFF770FF55F8047C6A4927F0FE
:103DB0000103A5F10804E2188E685068B24220F0B1
:103DC000030062D0FE0750600BD455F8087CE41B5A
:103DD00001F1080EA56875453B446FD0E768EF60B8
:103DE000BD6015186D68ED0742D543F001026260B1
:103DF000E350B3F5007F18D2DB085A1C4D6851F828
:103E00003270A76001209B1000FA03F301EBC2009F
:103E10001D430838E0604D6041F83240FC60404688
:103E2000BDE8F041FFF732BF70475A0A042A53D861
:103E30009A0902F139077F0002F1380501EB87008A
:103E400051F827204449083890424DD0516821F05C
:103E500003018B4202D292689042F7D1D068E060B1
:103E6000A2608460D4604046BDE8F041FFF70EBF19
:103E700095683A4FBD4203443FD0D068E86043F0B4
:103E8000010285606260E350B3E7FF07034407D493
:103E900055F8082CA41A1344A068E268C260906028
:103EA0002F4A126843F00100934260608C60B6D3E1
:103EB0002C4B40461968FFF721FFB0E711184968FD
:103EC000C90744D49168D268CA60034443F0010032
:103ED00091606060E350A2E7142A17D802F15C07F2
:103EE0007F0002F15B05A9E7AA104B68012505FADE
:103EF00002F213434B600246B1E743F001024C610A
:103F00000C61E560A5606260E35088E7542A06D83A
:103F10001A0B02F16F077F0002F16E058EE7B2F512
:103F2000AA7F06D8DA0B02F178077F0002F1770545
:103F300084E740F25450824206D89A0C02F17D0781
:103F40007F0002F17C0579E7FE277E2576E743F0C6
:103F500001026260E35062E7248CFF1F2C8CFF1F7C
:103F60002C90FF1FBC91FF1F2DE9F047254C2568C1
:103F7000D5F848410646884692469946C4B36068DB
:103F80001F2817DC431C76B104EB80050122C5F81D
:103F900088A0D4F8881182401143022EC4F88811F9
:103FA000C5F808911ED00230636044F820800020DC
:103FB000BDE8F087144B03B34FF4C870FFF7A4FBC0
:103FC0000446D0B1D5F84831002780E88800C5F80C
:103FD000484138460123C4F88871C4F88C71002E1A
:103FE000E1D0D1E7D4F88C110A43C4F88C21DAE788
:103FF00005F5A674C5F84841C1E74FF0FF30BDE8AC
:10400000F08700BF88420000093700004573746FD5
:10401000792044657370657274616E646F0000008E
:104020005465726D696EC3A9206465206465737000
:10403000657274617200000044697374616E636537
:1040400020696E20434D3A20000000000900000066
:10405000446F776E20436F756E743A200000000045
:10406000555020436F756E743A2000004379636C9D
:104070006520436F756E743A20000000626F6F6CAC
:104080005F7368656C66446F776E3A2000000000CD
:1040900053706565643A2000446F776E20546F67F3
:1040A000676C6520506F733A2000000055702054F3
:1040B0006F6F676C6520506F733A200042616A61D0
:1040C0006E646F0053756269656E646F0000000076
:1040D0004261696C616E646F000000004573706539
:1040E00072616E646F00FFFF0D0AFFFF6E616E006C
:1040F0006F766600696E66004008FE4340A004408B
:104100004408FE4344A004400018FE4300C004409D
:104110003000FE43309004403400FE4334900440AD
:104120001C18FE431CC004401018FE4310C004407D
:104130000818FE4308C004400C18FE430CC004409D
:104140000C10FE430CB004401010FE4310B00440AD
:104150001810FE4318B004401C10FE431CB004406D
:104160001410FE4314B004400418FE4304C004407D
:104170000010FE4300B004400008FE4300A00440CD
:104180000408FE4304A004400C08FE430CA00440B5
:104190000808FE4308A004401418FE4314C004405D
:1041A0001818FE4318C004400410FE4304B0044035
:1041B0000810FE4308B004401400FE43149004406D
:1041C0004C08FE434CA004400420FE4304D00440AD
:1041D0002410FE4324B004402010FE4320B00440CD
:1041E0002810FE4328B004402C10FE432CB004409D
:1041F0000020FE4300D004404808FE4348A004408D
:104200001000FE4310900440000000000000000079
:1042100059210000512100004D21000049210000DA
:1042200045210000412100003D210000392100000E
:1042300000151915000100005087FF1F1200000033
:10424000000200007C87FF1F430000000003000005
:10425000D887FF1F00000000010309046487FF1FC7
:104260000000000002030904C087FF1F00000000D7
:1042700003030904DC87FF1F0000000000000000AA
:104280000000000000000000F887FF1FF8B500BF25
:10429000F8BC08BC9E467047B53C000035040000E1
:0442A000210A0000EF
:0442A400F8B500BFAA
:1042A8000AD7833F1E0000000000704196000000FE
:1042B8000092FF1F080000001042000000000000EC
:1042C800E803000000000000FFFFFFFF010A0401EF
:1042D8001201100102000040C01683047502010299
:1042E8000301000018035400650065006E007300A8
:1042F80079006400750069006E006F0009024300D0
:10430800020100C032090400000102020100052474
:1043180000100105240101010424020605240600F9
:10432800010705820310004009040100020A000089
:104338000007050302400000070584024000000052
:104348001603550053004200200053006500720018
:10435800690061006C000000040309040C030000FC
:104368000000000000000000000000000000000045
:10437800000000000000000000000000E48AFF1FA9
:104388004C8BFF1FB48BFF1F0000000000000000D3
:104398000000000000000000000000000000000015
:1043A8000000000000000000000000000000000005
:1043B80000000000000000000000000000000000F5
:1043C80000000000000000000000000000000000E5
:1043D80000000000000000000000000000000000D5
:1043E80000000000000000000000000000000000C5
:1043F80000000000000000000000000000000000B5
:1044080000000000000000000000000000000000A4
:104418000000000000000000000000000000000094
:1044280001000000000000000E33CDAB34126DE631
:10443800ECDE05000B00000000000000000000009A
:104448000000000000000000000000000000000064
:104458000000000000000000000000000000000054
:104468000000000000000000000000000000000044
:104478000000000000000000000000000000000034
:1047A800F887FF1F0000000000000000248CFF1F96
:1047B800248CFF1F2C8CFF1F2C8CFF1F348CFF1F99
:1047C800348CFF1F3C8CFF1F3C8CFF1F448CFF1F49
:1047D800448CFF1F4C8CFF1F4C8CFF1F548CFF1FF9
:1047E800548CFF1F5C8CFF1F5C8CFF1F648CFF1FA9
:1047F800648CFF1F6C8CFF1F6C8CFF1F748CFF1F59
:10480800748CFF1F7C8CFF1F7C8CFF1F848CFF1F08
:10481800848CFF1F8C8CFF1F8C8CFF1F948CFF1FB8
:10482800948CFF1F9C8CFF1F9C8CFF1FA48CFF1F68
:10483800A48CFF1FAC8CFF1FAC8CFF1FB48CFF1F18
:10484800B48CFF1FBC8CFF1FBC8CFF1FC48CFF1FC8
:10485800C48CFF1FCC8CFF1FCC8CFF1FD48CFF1F78
:10486800D48CFF1FDC8CFF1FDC8CFF1FE48CFF1F28
:10487800E48CFF1FEC8CFF1FEC8CFF1FF48CFF1FD8
:10488800F48CFF1FFC8CFF1FFC8CFF1F048DFF1F87
:10489800048DFF1F0C8DFF1F0C8DFF1F148DFF1F34
:1048A800148DFF1F1C8DFF1F1C8DFF1F248DFF1FE4
:1048B800248DFF1F2C8DFF1F2C8DFF1F348DFF1F94
:1048C800348DFF1F3C8DFF1F3C8DFF1F448DFF1F44
:1048D800448DFF1F4C8DFF1F4C8DFF1F548DFF1FF4
:1048E800548DFF1F5C8DFF1F5C8DFF1F648DFF1FA4
:1048F800648DFF1F6C8DFF1F6C8DFF1F748DFF1F54
:10490800748DFF1F7C8DFF1F7C8DFF1F848DFF1F03
:10491800848DFF1F8C8DFF1F8C8DFF1F948DFF1FB3
:10492800948DFF1F9C8DFF1F9C8DFF1FA48DFF1F63
:10493800A48DFF1FAC8DFF1FAC8DFF1FB48DFF1F13
:10494800B48DFF1FBC8DFF1FBC8DFF1FC48DFF1FC3
:10495800C48DFF1FCC8DFF1FCC8DFF1FD48DFF1F73
:10496800D48DFF1FDC8DFF1FDC8DFF1FE48DFF1F23
:10497800E48DFF1FEC8DFF1FEC8DFF1FF48DFF1FD3
:10498800F48DFF1FFC8DFF1FFC8DFF1F048EFF1F82
:10499800048EFF1F0C8EFF1F0C8EFF1F148EFF1F2F
:1049A800148EFF1F1C8EFF1F1C8EFF1F248EFF1FDF
:1049B800248EFF1F2C8EFF1F2C8EFF1F348EFF1F8F
:1049C800348EFF1F3C8EFF1F3C8EFF1F448EFF1F3F
:1049D800448EFF1F4C8EFF1F4C8EFF1F548EFF1FEF
:1049E800548EFF1F5C8EFF1F5C8EFF1F648EFF1F9F
:1049F800648EFF1F6C8EFF1F6C8EFF1F748EFF1F4F
:104A0800748EFF1F7C8EFF1F7C8EFF1F848EFF1FFE
:104A1800848EFF1F8C8EFF1F8C8EFF1F948EFF1FAE
:104A2800948EFF1F9C8EFF1F9C8EFF1FA48EFF1F5E
:104A3800A48EFF1FAC8EFF1FAC8EFF1FB48EFF1F0E
:104A4800B48EFF1FBC8EFF1FBC8EFF1FC48EFF1FBE
:104A5800C48EFF1FCC8EFF1FCC8EFF1FD48EFF1F6E
:104A6800D48EFF1FDC8EFF1FDC8EFF1FE48EFF1F1E
:104A7800E48EFF1FEC8EFF1FEC8EFF1FF48EFF1FCE
:104A8800F48EFF1FFC8EFF1FFC8EFF1F048FFF1F7D
:104A9800048FFF1F0C8FFF1F0C8FFF1F148FFF1F2A
:104AA800148FFF1F1C8FFF1F1C8FFF1F248FFF1FDA
:104AB800248FFF1F2C8FFF1F2C8FFF1F348FFF1F8A
:104AC800348FFF1F3C8FFF1F3C8FFF1F448FFF1F3A
:104AD800448FFF1F4C8FFF1F4C8FFF1F548FFF1FEA
:104AE800548FFF1F5C8FFF1F5C8FFF1F648FFF1F9A
:104AF800648FFF1F6C8FFF1F6C8FFF1F748FFF1F4A
:104B0800748FFF1F7C8FFF1F7C8FFF1F848FFF1FF9
:104B1800848FFF1F8C8FFF1F8C8FFF1F948FFF1FA9
:104B2800948FFF1F9C8FFF1F9C8FFF1FA48FFF1F59
:104B3800A48FFF1FAC8FFF1FAC8FFF1FB48FFF1F09
:104B4800B48FFF1FBC8FFF1FBC8FFF1FC48FFF1FB9
:104B5800C48FFF1FCC8FFF1FCC8FFF1FD48FFF1F69
:104B6800D48FFF1FDC8FFF1FDC8FFF1FE48FFF1F19
:104B7800E48FFF1FEC8FFF1FEC8FFF1FF48FFF1FC9
:104B8800F48FFF1FFC8FFF1FFC8FFF1F0490FF1F78
:104B98000490FF1F0C90FF1F0C90FF1F1490FF1F25
:104BA8001490FF1F1C90FF1F1C90FF1F00000200A5
:044BB800FFFFFFFFFD
:00000001FF
